:100000000C94CE0F0C9406100C9406100C94061051
:100010000C9406100C9406100C9406100C94061008
:100020000C9406100C9406100C94E61A0C948F1F76
:100030000C9441270C9406100C9406100C94061096
:100040000C9406100C9406100C9406100C940610D8
:100050000C9406100C94BF1B0C9406100C94061004
:100060000C9406100C9406100C9406100C940610B8
:100070000C9406100C9406100C9406100C940610A8
:100080000C9406100C9406100C9406100C94061098
:100090000C9406100C9406100C9406100C94061088
:1000A0000C9406100C9406100C940610050109021D
:1000B000A10185020901A1000509190129081500FE
:1000C0002501950875018102050109300931158165
:1000D000257F95027508810609381581257F9501D0
:1000E00075088106050C0A38021581257F95017572
:1000F000088106C0C00660FF0961A1010962150000
:1001000026FF009520750881020963150026FF006F
:10011000952075089102C005010906A1010507197E
:10012000E029E71500250195087501810295017503
:100130000881010507190029FF150026FF00950613
:1001400075088100050819012905950575019102B9
:10015000950175039101C00000000000000000003F
:10016000000000000000000000000000000000008F
:10017000000000000000000000000000000000007F
:10018000000000000000000000000000000000006F
:10019000000000000000000000808080404020201F
:1001A0001008040204081010202040408080000045
:1001B000000000000000000000000000000000003F
:1001C000000000000000000000000000000000002F
:1001D000000000000000000000000000000000001F
:1001E000000000000000000000000000000000000F
:1001F00000000000000000000000000000000000FF
:10020000000000000000000000003FC101010202E8
:100210000404040402020101010000000000008047
:1002200000004080804000003030000000000102EB
:1002300064180412C2CA2488F080804040404020E4
:1002400020202010101010080808080404040402DC
:100250000202020101010100000000000000000094
:10026000000000000000000000000000000000008E
:10027000000000000000000000000000000000007E
:10028000000000000000000000E01806010000006F
:1002900000000000000000008083834040404020B8
:1002A000212120101010100808080804040404027A
:1002B0000202020101010100000000000000000034
:1002C000000000000000000000000000000000002E
:1002D000000000000000000000000000000000001E
:1002E000000000000000000000000000000000000E
:1002F00000000000000000808080804040404020DE
:1003000020202010101010080F0808040404040214
:10031000040810102020404041422498C088888C56
:100320009C1C1E0E060000000000000000000000E3
:1003300000000000000000000000000000000000BD
:1003400000000000000000000000000000000000AD
:10035000000000000000000000000000000000009D
:10036000000000000000000000000000000000008D
:10037000000000000000000000000000000000007D
:10038000000000000000000000000000000000006D
:10039000000000000000000000000000000000005D
:1003A000000000000000000000000000000000004D
:1003B000000000000000000000000000000000003D
:1003C000000000000000000000000000000000002D
:1003D000000000000000000000000000000000001D
:1003E000000000000000000000000000000000000D
:1003F00000000000000000000000000000000000FD
:1004000000000000000000000000000000000000EC
:10041000000000000080808040402020100804027E
:1004200004081010202040408080000000000000E0
:1004300000000000000000000000000000000000BC
:1004400000000000000000000000000000000000AC
:10045000000000000000000000000000000000009C
:10046000000000000000000000000000000000008C
:10047000000000000000000000000000000000007C
:100480000000000000003FC1010102020484444456
:100490004282010101000000000000800000408055
:1004A0008040000030300000000001020404080811
:1004B000102040808080804040404020202020103C
:1004C00010101008080808040404040202020201C3
:1004D0000101010000000000000000000000000019
:1004E000000000000000000000000000000000000C
:1004F00000000000000000000000000000000000FC
:100500000000000000E018060100000C03000218C3
:10051000190005FE808383404040402021212010A7
:10052000101010080808080404040404083040806F
:1005300080000001869860000000000000000000BC
:1005400000000000000000000000000000000000AB
:10055000000000000000000000000000000000009B
:10056000000000000000000000000000000000008B
:1005700000000080808080404040402020202010EB
:10058000101010080F0808040404040202020201FB
:100590000101010000000000000000000000000058
:1005A000000000000000060F0F07030361F0F8FCD5
:1005B000600101013C78F8F07000000000000000CC
:1005C000000000000000000000000000000000002B
:1005D000000000000000000000000000000000001B
:1005E000000000000000000000000000000000000B
:1005F00000000000000000000000000000000000FB
:1006000000000000000000000000000000000000EA
:1006100000000000000000000000000000000000DA
:1006200000000000000000000000000000000000CA
:1006300000000000000000000000000000000000BA
:1006400000000000000000000000000000000000AA
:10065000000000000000000000000000000000009A
:10066000000000000000000000000000000000008A
:10067000000000000000000000000000000000007A
:10068000000000000000000000000000000000006A
:1006900000808080404020201008040204081010D0
:1006A000202040408080000000000000000000008A
:1006B000000000000000000000000000000000003A
:1006C000000000000000000000000000000000002A
:1006D000000000000000000000000000000000001A
:1006E000000000000000000000000000000000000A
:1006F00000000000000000000000000000000000FA
:1007000000003FC10101020204844444428201010D
:1007100001000000000000800000408080400000D8
:10072000303000000000010264180412C2CA24889C
:10073000F080804040404020202020101010100801
:100740000808080404040402020202010101010075
:100750000000000000000000000000000000000099
:100760000000000000000000000000000000000089
:100770000000000000000000000000000000000079
:1007800000E018060100000C03000218190005FE25
:100790008083834040404020212120101010100809
:1007A0000808080404040402020202010101010015
:1007B0000000000000000000000000000000000039
:1007C0000000000000000000000000000000000029
:1007D0000000000000000000000000000000000019
:1007E0000000000000000000000000000000008089
:1007F00080808040404040202020201010101008B1
:100800000F080804040404020202020101010100AD
:1008100000000000000000000000000000000000D8
:1008200000000000000000000000000000000000C8
:1008300000000000000000000000000000000000B8
:1008400000000000000000000000000000000000A8
:100850000000000000000000000000000000000098
:100860000000000000000000000000000000000088
:100870000000000000000000000000000000000078
:100880000000000000000000000000000000000068
:100890000000000000000000000000000000000058
:1008A0000000000000000000000000000000000048
:1008B0000000000000000000000000000000000038
:1008C0000000000000000000000000000000000028
:1008D0000000000000000000000000000000000018
:1008E0000000000000000000000000000000000008
:1008F00000000000000000000000000000000000F8
:100900000000000000000000000080804040402007
:10091000202020201804020102040810202040405A
:1009200080800000000000000000000000000000C7
:1009300000000000000000000000000000000000B7
:1009400000000000000000000000000000000000A7
:100950000000000000000000000000000000000097
:100960000000000000000000000000000000000087
:1009700000000000000000000000000000003FC177
:10098000010102020404040402020100000000004C
:1009900000000080000040808040000030300000F7
:1009A000000001020404080810204080808080407C
:1009B0004040402020202010101010080808080493
:1009C000040404020202020101010100000000000F
:1009D0000000000000000000000000000000000017
:1009E0000000000000000000000000000000000007
:1009F00000000000000000000000000000E01806F9
:100A0000010000000000000000000000808383401F
:100A10004040402021212010101010080808080430
:100A200004040404083040808000000186986000BF
:100A300000000000000000000000000000000000B6
:100A400000000000000000000000000000000000A6
:100A50000000000000000000000000000000000096
:100A60000000000000000000000000808080804046
:100A70004040402020202010101010080F080804CB
:100A800004040402040810102020404041422418AD
:100A90000000000000000000000000000000000056
:100AA0000000000000000000000101010000000043
:100AB0000000000000000000000000000000000036
:100AC0000000000000000000000000000000000026
:100AD0000000000000000000000000000000000016
:100AE0000000000000000000000000000000000006
:100AF00000000000000000000000000000000000F6
:100B000000000000000000000000000000000000E5
:100B100000000000000000000000000000000000D5
:100B200000000000000000000000000000000000C5
:100B300000000000000000000000000000000000B5
:100B400000000000000000000000000000000000A5
:100B50000000000000000000000000000000000095
:100B60000000000000000000000000000000000085
:100B70000000000000000000000000000000000075
:100B80000000000000000000008080404040201075
:100B900008040201020408102040808000000000C8
:100BA0000000000000000000000000000000000045
:100BB0000000000000000000000000000000000035
:100BC0000000000000000000000000000000000025
:100BD0000000000000000000000000000000000015
:100BE0000000000000000000000000000000000005
:100BF000000000000000000000003FC101010202EF
:100C000004040404020201010100000000000000CD
:100C10000000800000800000606000000102040409
:100C200008081010202040808080804040404020F4
:100C300020202010101010080808080404040402E2
:100C4000020202010101010000000000000000009A
:100C50000000000000000000000000000000000094
:100C60000000000000000000000000000000000084
:100C7000000000000000000000C0300C0300000075
:100C800000000000000000008086864040404021B7
:100C9000222220111110100808080804040404047A
:100CA000083040808000000186986000000000004D
:100CB0000000000000000000000000000000000034
:100CC0000000000000000000000000000000000024
:100CD0000000000000000000000000000000000014
:100CE00000000000000000808080804040404020E4
:100CF00020202010101010080F080804040404021B
:100D00000408101020204040414224180000000038
:100D100000000000000000000000000000000000D3
:100D200000000000000101010000000000000000C0
:100D300000000000000000000000000000000000B3
:100D400000000000000000000000000000000000A3
:100D50000000000000000000000000000000000093
:100D60000000000000000000000000000000000083
:100D70000000000000000000000000000000000073
:100D80000000000000000000000000000000000063
:100D90000000000000000000000000000000000053
:100DA0000000000000000000000000000000000043
:100DB0000000000000000000000000000000000033
:100DC0000000000000000000000000000000000023
:100DD0000000000000000000000000000000000013
:100DE0000000000000000000000000000000000003
:100DF00000000000000000000000000000000000F3
:100E00000000000000808080804040201008040224
:100E10000408102040808000000000000000000056
:100E200000000000000000000000000000000000C2
:100E300000000000000000000000000000000000B2
:100E400000000000000000000000000000000000A2
:100E50000000000000000000000000000000000092
:100E60000000000000000000000000000000000082
:100E70000000000000007E82020204040808080846
:100E800004040201010000000000000000008000D6
:100E900000800000606000010102040408081010D6
:100EA0002020408080808040404040202020201032
:100EB00010101008080808040404040202020201C9
:100EC000010101000000000000000000000000001F
:100ED0000000000000000000000000000000000012
:100EE0000000000000000000000000000000000002
:100EF0000000000000C0300C0300000000000000F3
:100F000000000000808686404040402122222011BF
:100F10001110100808080804040404040830408074
:100F200080000001869860000000000000000000C2
:100F300000000000000000000000000000000000B1
:100F400000000000000000000000000000000000A1
:100F50000000000000000000000000000000000091
:100F600000000080808080404040402020202010F1
:100F7000101010080F0808040404040204081010DC
:100F800020204040414224180000000000000000E2
:100F90000000000000000000000000000000000051
:100FA000000101010000000000000000000000003E
:100FB0000000000000000000000000000000000031
:100FC0000000000000000000000000000000000021
:100FD0000000000000000000000000000000000011
:100FE0000000000000000000000000000000000001
:100FF00000000000000000000000000000000000F1
:1010000000000000000000000000000000000000E0
:1010100000000000000000000000000000000000D0
:1010200000000000000000000000000000000000C0
:1010300000000000000000000000000000000000B0
:1010400000000000000000000000000000000000A0
:101050000000000000000000000000000000000090
:101060000000000000000000000000000000000080
:101070000000000000000000000000000000000070
:101080000080808080404020100804020408102066
:101090004080800000000000000000000000000010
:1010A0000000000000000000000000000000000040
:1010B0000000000000000000000000000000000030
:1010C0000000000000000000000000000000000020
:1010D0000000000000000000000000000000000010
:1010E0000000000000000000000000000000000000
:1010F000001C34C40404040808080808040402019D
:1011000001000000000000800000408080400000DE
:10111000303000010102020404040808102040805D
:101120008080804040404020202020101010100877
:10113000080808040404040202020201010101007B
:10114000000000000000000000000000000000009F
:10115000000000000000000000000000000000008F
:10116000000000000000000000000000000000007F
:1011700000E0180601000000000000000000000070
:10118000808383404040402021212010101010080F
:1011900008080804040404040830408080000001AA
:1011A00086986000000000000000000000000000C1
:1011B000000000000000000000000000000000002F
:1011C000000000000000000000000000000000001F
:1011D000000000000000000000000000000000808F
:1011E00080808040404040202020201010101008B7
:1011F0000F080804040404020408101020204040D2
:10120000414224180000000000000000000000001F
:1012100000000000000000000000000000010101CB
:1012200000000000000000000000000000000000BE
:1012300000000000000000000000000000000000AE
:10124000000000000000000000000000000000009E
:10125000000000000000000000000000000000008E
:10126000000000000000000000000000000000007E
:10127000000000000000000000000000000000006E
:10128000000000000000000000000000000000005E
:10129000000000000000000000000000000000004E
:1012A000000000000000000000000000000000003E
:1012B000000000000000000000000000000000002E
:1012C000000000000000000000000000000000001E
:1012D000000000000000000000000000000000000E
:1012E00000000000000000000000000000000000FE
:1012F000000000000000000000008080404040200E
:101300002020202018040201020408102020404060
:1013100080800000000000000000000000000000CD
:1013200000000000000000000000000000000000BD
:1013300000000000000000000000000000000000AD
:10134000000000000000000000000000000000009D
:10135000000000000000000000000000000000008D
:10136000000000000000000000000000060D31C178
:101370000101010202020404020201000000000057
:1013800000000080000040808040000030300000FD
:101390000000010204040808102040808080804082
:1013A0004040402020202010101010080808080499
:1013B0000404040202020201010101000000000015
:1013C000000000000000000000000000000000001D
:1013D000000000000000000000000000000000000D
:1013E00000000000000000000000000000E01806FF
:1013F0000100000000000000000000008083834026
:101400004040402021212010101010080808080436
:1014100004040404083040808000000186986000C5
:1014200000000000000000000000000000000000BC
:1014300000000000000000000000000000000000AC
:10144000000000000000000000000000000000009C
:10145000000000000000000000000080808080404C
:101460004040402020202010101010080F080804D1
:1014700004040402040810102020404041422418B3
:10148000000000000000000000000000000000005C
:101490000000000000000000000101010000000049
:1014A000000000000000000000000000000000003C
:1014B000000000000000000000000000000000002C
:1014C000000000000000000000000000000000001C
:1014D000000000000000000000000000000000000C
:1014E00000000000000000000000000000000000FC
:1014F00000000000000000000000000000000000EC
:1015000000000000000000000000000000000000DB
:1015100000000000000000000000000000000000CB
:1015200000000000000000000000000000000000BB
:1015300000000000000000000000000000000000AB
:10154000000000000000000000000000000000009B
:1015500000000000000000000000007E0F00D4FF2B
:10156000FFFFC70000007800000000000000002A14
:101570002B28000000000000000000000000000018
:10158000000029000000002C1E34202122243426D3
:1015900027252E362D3738271E1F202122232425CC
:1015A000263333362E37381F0405060708090A0B81
:1015B0000C0D0E0F101112131415161718191A1BF3
:1015C0001C1D2F3130232D350405060708090A0B91
:1015D0000C0D0E0F101112131415161718191A1BD3
:1015E0001C1D2F3130354C00DA0281FFD9F1DB2090
:1015F000A4A62EAF00A0C000A1C800AED580A81F31
:10160000D300408D142000643214783C1E1E140A4E
:1016100005202020202020200043415053000001BD
:1016200001010101010101010202020202020202A2
:101630000203030303030303030404040404040474
:101640000505050505060606060607070707070838
:10165000080808090909090A0A0A0B0B0B0C0C0CEB
:101660000D0D0D0E0E0E0F0F0F1010111111121285
:1016700013131414151516161717181819191A1A02
:101680001B1B1C1D1D1E1E1F202021222223242463
:10169000252626272829292A2B2C2D2D2E2F30319F
:1016A0003232333435363738393A3B3C3D3E3F40B1
:1016B0004142434445464748494A4C4D4E4F50519C
:1016C0005354555658595A5B5D5E5F616264656656
:1016D00068696B6C6D6F7072737577787A7B7D7EDD
:1016E0008082838587888A8C8E8F91939596989A2D
:1016F0009C9EA0A2A3A5A7A9ABADAFB1B3B5B7BA45
:10170000BCBEC0C2C4C6C9CBCDCFD1D4D6D8DBDD18
:10171000DFE2E4E7E9EBEEF0F3F5F8FAFDFF222370
:10172000252628292A2C2D2F3032333536383A3BBE
:101730003D3E4042434547494A4C4E505153555710
:10174000595A5C5E6062646668696B6D6F7173752F
:1017500077797B7D7F81838587898A8C8E9092942F
:1017600096989A9C9E9FA1A3A5A7A8AAACAEAFB13C
:10177000B3B4B6B8B9BBBCBEBFC1C2C3C5C6C7C986
:10178000CACBCCCDCED0D1D2D2D3D4D5D6D7D7D840
:10179000D9D9DADADBDBDBDCDCDCDCDCDDDDDDDD92
:1017A000DCDCDCDCDCDBDBDBDADAD9D9D8D7D7D69A
:1017B000D5D4D3D2D2D1D0CECDCCCBCAC9C7C6C551
:1017C000C3C2C1BFBEBCBBB9B8B6B4B3B1AFAEAC97
:1017D000AAA8A7A5A3A19F9E9C9A98969492908E42
:1017E0008C8A89878583817F7D7B79777573716F1B
:1017F0006D6B6968666462605E5C5A5957555351F7
:10180000504E4C4A4947454342403E3D3B3A3836AC
:10181000353332302F2D2C2A29282625232200AFBC
:1018200000AE165C14001A000800150017001C001A
:1018300018000C00120013002F0030002B000400D1
:101840001600070009000A000B000D000E000F0033
:10185000330034002800E1001D001B0006001900C1
:101860000500025311001000360037003800E50073
:10187000E000E3000000E2002C0000002A0000006D
:10188000E600000001510000E400C25C1E021F02DD
:10189000200221022202230224022502260227021C
:1018A0002D022E02C35CF200F100F000F300A9004B
:1018B000A8005000520051004F00BD000100C95C5B
:1018C00001002400FA00F900AA00010040004100D4
:1018D00042000100BE000100010001000000010003
:1018E000F4000000F50000006300000001000000AB
:1018F0000100010001001E001F00200057005500DC
:101900003A003B003C000100010001000100010021
:10191000210022002300560054003D003E003F00FD
:101920000100010001000100010024002500260043
:101930006700010040004100420001000100010079
:10194000010001000000850027000000005C00008D
:1019500063000000010000000100010001001E0002
:101960001F002000570055003A003B003C000100DA
:1019700001000100010001002100220023005600A7
:1019800054003D003E003F00010001000100010045
:1019900001002400250026006700010040004100EE
:1019A000420001000100010001000100000085006B
:1019B00027000000005C0000630000000100000040
:1019C000010009025B00030100A0FA090400000104
:1019D00003010100092111010001224000070581D6
:1019E000030800010904010002030000000921119D
:1019F00001000122220007058203200001070503E0
:101A00000320000109040200010300000009211164
:101A10000100012249000705840320000112010092
:101A20000200000008415444540100010200011C5E
:101A30000341006E0068002E00540072006F006EBB
:101A400000670044006F006E00670000000803415B
:101A5000006E00680000000403090407087F0807FF
:101A6000003E5B4F5B3E003E6B4F6B3E001C3E7C7E
:101A70003E1C00183C7E3C18001C577D571C001C67
:101A80005E7F5E1C0000183C180000FFE7C3E7FF04
:101A900000001824180000FFE7DBE7FF0030483A99
:101AA000060E00262979292600407F0505070040FB
:101AB0007F05253F005A3CE73C5A007F3E1C1C082E
:101AC00000081C1C3E7F0014227F2214005F5F0070
:101AD0005F5F0006097F017F00006689956A0060EC
:101AE000606060600094A2FFA2940008047E040875
:101AF0000010207E20100008082A1C0800081C2A5C
:101B00000808001E10101010000C1E0C1E0C0030D7
:101B1000383E383000060E3E0E0600000000000081
:101B20000000005F000000000700070000147F14A1
:101B30007F1400242A7F2A120023130864620036CF
:101B40004956205000000807030000001C224100F5
:101B5000000041221C00002A1C7F1C2A0008083EAD
:101B6000080800008070300000080808080800001D
:101B700000606000002010080402003E5149453E0C
:101B80000000427F40000072494949460021414916
:101B90004D33001814127F10002745454539003C8D
:101BA0004A4949310041211109070036494949365E
:101BB00000464949291E000000140000000040347E
:101BC0000000000008142241001414141414000032
:101BD00041221408000201590906003E415D594E98
:101BE000007C1211127C007F49494936003E414178
:101BF0004122007F4141413E007F49494941007FE8
:101C000009090901003E41415173007F0808087F1E
:101C10000000417F4100002040413F01007F081447
:101C20002241007F40404040007F021C027F007F35
:101C30000408107F003E4141413E007F090909062A
:101C4000003E4151215E007F09192946002649497D
:101C500049320003017F0103003F4040403F001F25
:101C60002040201F003F4038403F006314081463A9
:101C7000000304780403006159494D4300007F418B
:101C8000414100020408102000004141417F00044E
:101C900002010204004040404040000003070800E9
:101CA000002054547840007F28444438003844448D
:101CB000442800384444287F003854545418000005
:101CC000087E09020018A4A49C78007F0804047808
:101CD0000000447D4000002040403D00007F10286F
:101CE00044000000417F4000007C04780478007CC0
:101CF0000804047800384444443800FC18242418AC
:101D00000018242418FC007C0804040800485454DB
:101D100054240004043F4424003C4040207C001C28
:101D20002040201C003C4030403C00442810284407
:101D3000004C9090907C004464544C440000083661
:101D4000410000000077000000004136080000025A
:101D500001020402003C2623263C00000000000093
:101D600000404040F0F8F8FF38FFF8F83FF8F8FF7F
:101D700038FFF8F8F040404000000000000080C04C
:101D8000C0C0800000C0C08000000080C0C000C093
:101D9000C0000080C0C00000000000C0C0C0C0C0C3
:101DA00000C0C000000000000000000000000000B3
:101DB0000000000000000000000000000000000023
:101DC0000000000000000000000000000000000013
:101DD00000000000000000000000C0F0F8FC3E1E03
:101DE00006010000007F4141417F007F4141417F6A
:101DF000000080C0E07E5B4F5BFEC00000C000DCE6
:101E0000D7DEDEDED7DC00C00000000000000000EE
:101E100000000000000000000000000000000000C2
:101E200000494949FFFFFFFFE0DFBFBF00BFBFDF41
:101E3000E0FFFFFFFF49494900000000001F3F602D
:101E400060E0BF1F007F7F071E381E077F7F007F77
:101E50007F0E1F3B716000000000007F7F0C0C0CA8
:101E6000007E7E007F7E0303007F7E03037E7E0371
:101E7000037F7E000F3E703C063C703E0F00327BBD
:101E800049493F7E007F7E0303001E3F69696F263C
:101E900000000000000000000000030F1F3F3C781E
:101EA00070600000007F4141417F007F4141417FE0
:101EB00000307B7F7830202030787F3B0003000F9C
:101EC0007F0F0F0F7F0F00030000000000000000D5
:101ED0000000000000000000000000000000000002
:101EE00000010101070F0F7F0F7F0F0F7E0F0F7F84
:101EF0000F7F0F0F0701010100000000000000002C
:101F000000000101000000000000000000000000CF
:101F100000000000000000000000000000000000C1
:101F200000000000000000000000000000000000B1
:101F300000000000000000000000000000000000A1
:101F40000000000000000000000000000000000091
:101F50000000000000000000000000000000000081
:101F60000000000000000000000000000000000071
:101F70000000000000000000000000000000000061
:101F80000000000000000000000000000000000051
:101F900000000000000000000000000011241FBE2F
:101FA000CFEFDAE0DEBFCDBF04B603FE18C08091EC
:101FB0009B0490919C04A0919D04B0919E04873055
:101FC000904BA740B04B59F410929B0410929C0484
:101FD00010929D0410929E04E0E0F8E3099511E050
:101FE000A0E0B1E0E4EAF8E602C005900D92A63563
:101FF000B107D9F724E0A6E5B1E001C01D92AB39E5
:10200000B207E1F70E9468270C9433340C94000067
:10201000CF93DF934091990450919A0449595240CB
:102020009A0124583D4F21303240C0F020E032E088
:10203000241B350B6091970270919802FC01CA0134
:10204000240F351FC1E0D0E08217930750F0709342
:10205000980260939702DF91CF9108952CE732E0C8
:10206000E9CF4491DC01A756BD4F5C91451781F043
:102070004C93AC01A5E056954795AA95E1F7DE0192
:1020800002C0AA0FBB1F4A95E2F7AD016A2B752B60
:1020900001963196D9CFE8EDF0E080818E7F808384
:1020A0001092E2001092DA001092E100A0EEB0E08F
:1020B0008C9181608C9380818F77808319BCA7ED90
:1020C000B0E08C918E7F8C9380818F7E8083109284
:1020D000750208952091E4003091E50095E6A9018C
:1020E0002091EC00822F817020FF06C08091E800D3
:1020F00080FF06C080E008952091E80022FD1AC00C
:1021000080918202882389F0853089F08091EB00EC
:1021100085FD0FC02091E4003091E5004217530780
:10212000F9F29150E1F684E0089582E0089583E0A9
:10213000089581E00895EF92FF920F931F93CF933C
:102140007C018B010E946A10C82F811117C08091F9
:10215000E80085FD0BC08091E8008E778093E80051
:102160000E946A10882399F3C82F08C0F701819153
:102170007F018093F1000150110949F78C2FCF9115
:102180001F910F91FF90EF9008958091840287FF37
:1021900013C08091E80082FF06C08091E8008B7731
:1021A0008093E80004C0809182028111F2CF0895EB
:1021B000809182028823D9F38091E80080FFF8CFD4
:1021C0008091E8008E77ECCF982F9093E900242F30
:1021D000762F50E0891731F07091EC002091ED00DE
:1021E0005091F00021FD07C09F5F973071F78093F9
:1021F000E90081E008953091EB003E7F3093EB00E1
:102200003091ED003D7F3093ED003091EB00316077
:102210003093EB007093EC002093ED005093F000AE
:102220002091EE0027FDE0CF80E00895B0E0A0E02F
:10223000ECE1F1E10C947930C8EDD0E088818F7E3B
:102240008883E7EDF0E080818160808384E082BF55
:1022500081E08093750288818E7F888302EE10E092
:10226000F80110821092DA0081EEC82ED12CF6010E
:10227000108288818F7788838881806888838881AD
:102280008F7D888319BC1092820210928302109273
:1022900081021092800290EEE92EF12CF7018081EC
:1022A0008B7F808388818160888342E060E080E06A
:1022B0000E94E410F60180818E7F8083F801808186
:1022C00081608083808188608083F70180818E7F38
:1022D0008083888180618883CDB7DEB7E8E00C9485
:1022E0009530FC0180918A0290918B0286179707A6
:1022F000A0F06115710529F49091E8009E77909304
:10230000E80090E06115710551F4911108C08091C9
:10231000E80082FF34C080E00895BC01F2CF8091D4
:1023200082028823C1F18530C1F18091E80083FDEC
:1023300030C08091E80082FDEACF8091E80080FF04
:10234000E1CF8091F3002091F200382F61157105E3
:1023500019F02830310558F091E02830310509F0A6
:1023600090E02091E8002E772093E800CBCF819178
:102370008093F100615071092F5F3F4FE7CF80914B
:102380008202882341F0853041F08091E80083FF8C
:10239000BECF81E0089582E0089583E00895089516
:1023A000089508958091770208952FB7F894609169
:1023B00071027091720280917302909174022FBF2A
:1023C0000895E0916E02F0916F02309729F001902C
:1023D000F081E02D0995089580E00895FA018111BA
:1023E00001C0FB0109950895089580916302982F1B
:1023F0009E7F29F4817082608093630208958E31FC
:10240000E8F381708C61F8CFAF92BF92DF92EF92C8
:10241000FF920F931F93CF93DF93082F162FE9019D
:10242000E42FF0E0E25EF94E611110C0E4915E2FFE
:102430004E2F4983E8835A83DF91CF911F910F91EB
:10244000FF90EF90DF90BF90AF900895E62EF12CB3
:102450004491D42EE42FF0E026E0829FC0011124A5
:102460002FEF30E0B9010E945B30802F90E0880FA1
:10247000991F55E5569FD001579FB00D11248A1B17
:102480009B0B982F990F890F5901AE18BF08AE9E6C
:10249000D001AF9EB00DBE9EB00D11245B2F189FD2
:1024A00080011124012F11275901A01AB10AAE9EF3
:1024B0008001AF9E100DBE9E100D11245901A81A67
:1024C000B108AE9CC001AF9C900DBE9C900D112434
:1024D000892F9927281B390B2E9FC0012F9F900D04
:1024E0003E9F900D1124E92F62307105A1F050F448
:1024F0006115710509F49DCF6130710581F0EB2FF5
:10250000512F97CF6430710569F080F06630710506
:1025100009F48FCFF4CFE42F4B2F592F8ACFE42F1C
:10252000412F87CFEB2F542F492F83CF4B2F5D2D7A
:10253000E12F7FCF40912402803F59F48091250202
:1025400087FF0DC01092250241110BC010921C0292
:1025500008C0813F81F48091250218169CF3442322
:1025600081F08091260290912702892B09F05AC0B0
:1025700010921B020895823F49F447FFF0CF10925A
:102580002402809125028111ECCFE0CF833F19F422
:102590001416ACF3E4CF90912602893F29F4191662
:1025A000F4F610922602DBCF8A3F19F497FFD7CFBB
:1025B000F8CF909127028B3F29F497FFD0CF10924C
:1025C0002702CDCF8C3F19F41916CCF3C8CF9CE06D
:1025D000980F953090F4845F990B21E030E0B901B9
:1025E00002C0660F771F8A95E2F7CB018095909124
:1025F0002302892380932302B2CF8D3F31F480914F
:102600001D028E7F80931D02AACF8E3F21F4809100
:102610001D028D7FF7CF8F3F09F0A1CF80911D0262
:102620008B7FF0CF089580911D0280FD16C081FD43
:1026300016C082FD16C080911B028823A1F088324B
:1026400080F428E0829FC001112468E270E00E94BB
:10265000B230862F672B39F0089582E0089584E028
:10266000089588E0089581E0089580911D0280FD1D
:1026700014C081FD14C082FD16C080911C02882305
:1026800081F08E3180F420E5829FC00111246EE13B
:1026900070E00E94B230862F089584E1089588E2A8
:1026A000089588E0089580E50895803F31F40E9400
:1026B00035138195809325020895813F19F40E9476
:1026C0003513F8CF823F31F40E9435138195809302
:1026D00024020895833F19F40E943513F8CF893FEF
:1026E00029F40E9413138093260208958A3F21F44F
:1026F0000E9413138195F7CF8B3F31F40E9413137F
:1027000081958093270208958C3F19F40E9413133A
:10271000F8CF9CE0980F953070F4845F990B21E01E
:1027200030E001C0220F8A95EAF780912302822BC4
:102730008093230208958D3F31F480911D028160C2
:1027400080931D0208958E3F21F480911D028260C6
:10275000F7CF8F3FB9F780911D028460F1CF80E001
:102760000895F894E82FE295EF70F0E031A1282F5A
:102770002F7081E090E001C0880F2A95EAF7982F2A
:102780009095932391A392A1892B82A37894089585
:102790008238910599F1C8F58133910509F491C00A
:1027A00030F58932910509F485C08A32910509F422
:1027B0008FC0811521E5920708F0A6C0811540E57C
:1027C000940708F0E7C08F3F910511F008F08FC023
:1027D000803F910508F0DCC0853A910508F07FC084
:1027E0008430910500F581309105E9F03CC08533D6
:1027F000910509F458C089339105D9F620919201C9
:10280000237089F080EE90E00895833E910571F188
:1028100058F4803E9105E9F0823E910551F62091F1
:10282000920122FD1EC00895863E910551F1873E1A
:10283000910571F1843E910509F0BBCF2091930180
:1028400021FFF1CF8091920184FD0DC087EE90E0D1
:1028500008952091920120FDF3C03091930130FF43
:10286000E2CF24FFF0C090E080E0DDCF2091920124
:1028700022FDECC03091930130FDC4CF24FFD3CFB3
:10288000F2CF2091920123FFCECF24FDECCFDECFFB
:102890002091920123FDDDC03091930131FFEECFF5
:1028A00084EE90E008952091920125FFBCCF89E24B
:1028B00090E008952091920125FFB5CF85E390E047
:1028C00008952091920126FFAECF8AE290E008950C
:1028D0002091920126FFA7CF81E390E008959C010B
:1028E000205E31092830310508F49DCFBCCF811519
:1028F00020E2920708F497CF811540E4940708F48A
:10290000B2CF9F70906A0895811524E5920778F4FC
:10291000811543E5940708F06CC0811522E5920704
:1029200008F056C0982F8827816F906A0895811506
:1029300048E5940708F497CF811529E5920708F434
:102940006CC081154AE5940708F08DCF282F2F70B1
:102950004091920142FF05C083FF64C0282F277079
:1029600024603091930130FF07C0322F3871383026
:1029700009F05EC0277F216044FD277E34E09695F4
:1029800087953A95E1F78F70982F822F9069089577
:10299000906508959C0164E0369527956A95E1F766
:1029A000922F9370282F26952695237040E2249F1E
:1029B00090011124392B482F437081E090E002C030
:1029C000880F991F4A95E2F7822B932B9C680895F4
:1029D000AC014370552721E030E002C0220F331FC5
:1029E0004A95E2F78695869540E2849FC0011124BE
:1029F000EBCFAC014370552721E030E002C0220F3D
:102A0000331F4A95E2F78695869540E2849FC00180
:102A10001124822B932B9A680895982F8827806F12
:102A2000906A089582FF9DCF282F2B70286099CF40
:102A3000322F3171313009F09FCF2E7F28609CCF2B
:102A400089E390E0089583EE90E0089582EE90E0AF
:102A5000089586EE90E00895EAE5F1E091918913FA
:102A600003C0DF0111971C9291E0E036F907B1F73E
:102A70000895AAE5B1E0EFEF90E02D91821751F0B3
:102A8000EF3F19F4211101C0E92F9F5F9630A9F79C
:102A9000EF3F09F408950E2E000CFF0BE85AFE4F8D
:102AA00082830895292F943078F58D3068F590E071
:102AB0003DE0239F800D911D1124682F677023E056
:102AC000969587952A95E1F7FC01EE0FFF1FE80F19
:102AD000F91FE959FE4F50E040E080E0219130E0DD
:102AE000062E02C0369527950A94E2F72170332707
:102AF000042E01C0220F0A94EAF7822B4F5F5F4F2A
:102B00004330510559F7089580E00895292F9430F6
:102B100098F58D3088F590E03DE0239F800D911D64
:102B20001124282F277041E001C0440F2A95EAF7AD
:102B300023E0969587952A95E1F7FC01EE0FFF1F9C
:102B4000E80FF91FE959FE4F30E020E070E05191A5
:102B5000DF011197CB01022E02C0969587950A944A
:102B6000E2F7817081958527842385278C932F5FD9
:102B70003F4F2330310559F708958091E5018531A4
:102B8000F8F48091610190E0019665E070E00E94A8
:102B9000B2308093610124E030E0281B390B4CE710
:102BA00052E0249FC001259F900D349F900D112469
:102BB0008553974F0E94081008958FE496E0FACF4E
:102BC0008832D8F38091600190E001968170992756
:102BD0008093600121E030E0281B390B4CE752E084
:102BE000249FC001259F900D349F900D1124895A78
:102BF0009E4FE0CFB0E0A0E0E0E0F6E10C94793049
:102C00006C017B0164E670E088E70E94722FEC01A2
:102C100097FD12C010E000E0F601E00FF11F849173
:102C200064E670E00E94E02FEC01892B29F40F5F2D
:102C30001F4F0E151F0581F70E945730CE01CDB7EB
:102C4000DEB7E8E00C94953080916C0290916D02B3
:102C5000911103C091E089270895882369F062E00B
:102C600070E080E298E10E94FA15892B19F08091BA
:102C70006C02089510926C0280916C02EBCFCF939E
:102C8000C0916C0280916D028823D1F00E94D51111
:102C9000605A75418F4F9F4F60936802709369022D
:102CA00080936A0290936B02C11108C062E070E0E9
:102CB0008EE198E10E94FA15892B29F0C0916C02EF
:102CC0008C2FCF91089581E080936C02F7CFCF9342
:102CD000DF93C0919904D0919A048A30C1F4209175
:102CE0009002CE0189599240622F70E00E945B30C1
:102CF000281B822F66E00E94A630C82FC15018F40E
:102D0000DF91CF91089580E20E946716F7CF8D3052
:102D1000E9F4C959D24020919002622F70E0CE01AF
:102D20000E945B30281B822F9E01280F311D211528
:102D3000324018F080E0D0E0C0E0C80FD11DC75687
:102D4000DD4FD0939A04C0939904DACF96E0FE0148
:102D5000A1E9B2E001900D929A95E1F7803E08F466
:102D600058C086E0FE0111928A95E9F7C091990456
:102D7000D0919A0446E050E0BE0181E992E00E94C1
:102D80004C319E0129593240892B41F1C90145E05E
:102D9000969587954A95E1F741E050E0BA0102C067
:102DA000660F771F8A95E2F7CB01609197027091C9
:102DB0009802862B972BB9016B5F7F4FE5E07695E4
:102DC0006795EA95E1F702C0440F551F6A95E2F74F
:102DD000842B952B90939802809397022A5F3F4F04
:102DE00040919002642F70E0C9010E945B30481B43
:102DF000463010F4240F311D211572E0370710F012
:102E000030E020E027563D4F30939A0420939904F8
:102E100077CFF6E08F9FB0011124655A754E46E0DA
:102E200050E0CE010E943631A1CF80918501909172
:102E30008401892B8093580148E050E06CE771E0F1
:102E400088E591E00E944C31892BA9F088E0E8E503
:102E5000F1E0ACE7B1E001900D928A95E1F7E091E5
:102E60006E02F0916F02309731F00280F381E02D15
:102E700088E591E009950895882341F08095909127
:102E800085018923809385010E9415170895882361
:102E900039F090918501982B909385010E94151728
:102EA00008959C0184E08093E9009FEF8091E80001
:102EB000915085FD06C085ED8A95F1F700009111CE
:102EC000F5CF8091E80085FF0CC050E040E066E05F
:102ED00070E0C9010E949B108091E8008E7780937A
:102EE000E8000895CF93DF93EC0181E08093E9003F
:102EF0008FEF9091E800815095FD06C095ED9A9571
:102F0000F1F700008111F5CF8091E80085FF14C032
:102F100050E040E068E070E0CE010E949B1080919C
:102F2000E8008E778093E80088E0FE01A8E7B2E031
:102F300001900D928A95E1F7DF91CF91089581E09C
:102F40008093E00080E28093D8001092C9008FE166
:102F50009EE40197F1F700C0000087E090EBDC01F0
:102F600080939B0490939C04A0939D04B0939E0433
:102F700088E19CE00FB6F894A895809360000FBE9E
:102F800090936000FFCF8091630280FD0AC0E0E370
:102F9000F2E0118210821282339652E0E336F50796
:102FA000C1F7209A35B13E7F25B121604FB7F89423
:102FB00080E392E0FC015191CF0168E025B9000067
:102FC00000C057FF35B9550F000000C000C000C059
:102FD00035B900C06A9591F7F2E083369F0751F743
:102FE0004FBF8FE594E00197F1F700C0000008950E
:102FF000EF92FF921F93CF93DF93EC0180E3E82ED3
:1030000082E0F82E10E08C81970140916602609179
:103010006502810F0E940412115F83E0E80EF11C2B
:103020001F3F89F70E94C3179A818C8190FF08C0C7
:103030008F5F8C83DF91CF911F91FF90EF90089568
:103040008150F7CF9091630290FF0CC0E0E3F2E073
:10305000818360834283339692E0E336F907C1F7B8
:103060000E94C3170895A3E0B0E0E9E3F8E10C94EF
:103070007F309091630290FF0AC09E012F5F3F4F07
:103080000E9404124B8169818A810E942218239632
:10309000E2E00C949B30CF93DF93EC01E3E6F2E0A7
:1030A000438162818C810E9433188C818F5F8C8375
:1030B000DF91CF910895CF93DF93EC01EC81F0E0A5
:1030C000E25EF84E4491E3E6F2E0628181810E9483
:1030D00033188C818F5F8C83DF91CF910895CF93CC
:1030E000DF93C7ECD1E060E0CE010E94FF33219670
:1030F000C11584E0D807B9F7DF91CF9108951F93E8
:10310000CF93DF93122F8430E0F46430D0F44D304D
:10311000C0F4C42FD0E0CC0FDD1F9AE1699FC00D31
:10312000D11D112498E6899FC00DD11D1124632F54
:10313000CE0187960E94FF33612FCE0188960E94B0
:10314000FF33DF91CF911F910895AF92BF92CF923D
:10315000DF92EF92FF921F93CF93DF9382E2C82E0C
:1031600088E1D82ED0E07601C0E014C0F5012591A9
:103170003491412F6C2F8D2F0E947F1882E0A80E72
:10318000B11C1F5F1D3091F78AE1E80EF11CCF5F83
:10319000C43019F0570110E0E9CFDF5F88E6C80EB0
:1031A000D11CD43001F7DF91CF911F91FF90EF90A8
:1031B000DF90CF90BF90AF900895CF93C82F6FEF5F
:1031C000811162E283E290E00E94FF336FEFC11150
:1031D00068E084E290E00E94FF336FEFC11164E188
:1031E00085E290E00E94FF33CF91089580E00E9435
:1031F000DD1860E086E290E00E94FF330E94A5188F
:103200000E946F1881E00E94DD1808950F931F93AC
:10321000CF93DF93843030F5643020F54D3010F5D6
:10322000C42FD0E0CC0FDD1F2AE1629FC00DD11D5D
:10323000112438E6839FC00DD11D1124CE0187963D
:103240000E94EB33082F10E0102F0027CE01889644
:103250000E94EB339801282BC901DF91CF911F9178
:103260000F91089590E080E0F8CF462F843040F42D
:10327000743030F46D3020F4672F0E9406190895E1
:1032800090E080E00895CF92DF92FF920F931F931A
:10329000CF93DF936C0100918F0280918601082B00
:1032A000C7E0D0E010E0FC2EC8010C2E02C09595BE
:1032B00087950A94E2F780FD0CC02197A0F7F12CC6
:1032C0008F2DDF91CF911F910F91FF90DF90CF90C5
:1032D0000895B6018C2F0E9435190E94C8130197DA
:1032E00061F3EECF83E290E00E94EB33823289F407
:1032F00084E290E00E94EB33883059F485E290E05C
:103300000E94EB3391E0843109F090E0892F8170C5
:10331000089580E0FCCFCF9384E090E00E94EB33EF
:10332000C82F82E290E00E94EB33982F8C2FCF9130
:103330000895CF92DF92EF92FF926B017C010E9481
:10334000F511B701A60188E090E00E941134FF90CA
:10335000EF90DF90CF900895A3E0B0E0E2EBF9E1C9
:103360000C947B30082FF62E142FE22E80916302EE
:1033700080FF28C0E82FE695F0E0E85CFE4F9081E2
:1033800090932E028E7F823009F59E012F5F3F4F72
:10339000802F0E9404124B8169818A810E94221829
:1033A00000936402F092650210936602EE2051F0E1
:1033B000609163027091640280916502909166024F
:1033C0000E9499192396E6E00C949730923019F4F4
:1033D00010916602E5CF963019F400916402E0CFB7
:1033E0009930F1F6FACFE3E6F2E0438121E1421BA6
:1033F00008F440E021E0628181810E94AC190895C7
:10340000E3E6F2E0438121E1420F08F44FEF21E0CF
:10341000628181810E94AC190895E3E6F2E0628145
:1034200021E1621B08F460E021E0438181810E9478
:10343000AC190895E3E6F2E0628121E1620F08F43D
:103440006FEF21E0438181810E94AC190895E3E68A
:10345000F2E0818121E04381628188500E94AC19B1
:103460000895E3E6F2E0818121E043816281885F93
:103470000E94AC19089580916702882319F0815049
:10348000809367026091630270916402809165028B
:10349000909166020E949919089580916702833085
:1034A00018F48F5F809367026091630270916402E9
:1034B00080916502909166020E9499190895E3E651
:1034C000F2E083E0808311828FEF82838383148212
:1034D00060817181828193810E949919089568EEBB
:1034E0007EEF90E080E00E941D3460E082E090E09A
:1034F0000E94FF3360E083E090E00E94FF3310926F
:10350000860160E084E090E00E94FF3364E082E2A4
:1035100090E00E94FF3360E085E090E00E94FF337E
:1035200060E086E090E00E94FF336FEF87E090E07C
:103530000E94FF3340E050E0BA0188E090E00E9432
:10354000113460E08DE090E00E94FF3340E050E0F5
:10355000BA0188E190E00E94113460E087E190E0D8
:103560000E94FF3340E050E0BA018CE190E00E94FD
:10357000113470E060E080E290E00E941D3440E091
:1035800050E0BA0188E190E00E94113480E00E948E
:10359000DD180E94F61840E050E0BA018FE090E09C
:1035A0000E94113440E050E0BA0183E190E00E94B3
:1035B0001134089590E080E00E94F933883E9E4FD8
:1035C00019F40E947219089580E008951F920F92D5
:1035D0000FB60F9211242F933F934F935F936F93E6
:1035E0007F938F939F93AF93BF93EF93FF938091BC
:1035F000E10082FF09C08091E20082FF05C0809156
:10360000E1008B7F8093E1008091DA0080FF24C08D
:103610008091D80080FF20C08091DA008E7F809357
:10362000DA008091D90080FF9DC080E189BD82E1F0
:1036300089BD09B400FEFDCF81E0809382028091B4
:103640007502811109C00E944B100E9416118091D1
:10365000E20084608093E2008091E10080FF17C067
:103660008091E20080FF13C08091E2008E7F809302
:10367000E2008091E20080618093E2008091D800B6
:1036800080628093D80019BC85E08093820280918B
:10369000E10084FF2BC08091E20084FF27C080E11D
:1036A00089BD82E189BD89B5982F917080FFFBCFDC
:1036B0008091D8008F7D8093D8008091E1008F7E2B
:1036C0008093E1008091E2008F7E8093E200809100
:1036D000E20081608093E20080918302882309F4F4
:1036E00047C084E080938202809182028091E10051
:1036F00083FF27C08091E20083FF23C08091E10017
:10370000877F8093E10082E080938202109283029F
:103710008091E1008E7F8093E1008091E2008E7FB6
:103720008093E2008091E20080618093E20042E0B9
:1037300060E080E00E94E4108091F0008860809357
:10374000F000FF91EF91BF91AF919F918F917F9189
:103750006F915F914F913F912F910F900FBE0F90FE
:103760001F90189519BC109282021092750274CFA6
:103770008091E30087FD93E090938202B5CF789427
:103780001F921FB61F9211248F939F93AF93BF93E5
:103790008091710290917202A0917302B0917402B3
:1037A0000196A11DB11D8093710290937202A093A6
:1037B0007302B0937402BF91AF919F918F911F904C
:1037C0001FBE1F9018959C014FB7F894809171020D
:1037D00090917202A0917302B09174024FBF821B4C
:1037E000930B08952FB7F894809171029091720213
:1037F000A0917302B09174022FBF0895609163028B
:10380000669570E041E050E084E191E00E943F3134
:10381000892B19F481E080932F020E94F21B909370
:1038200029028093280208959091630290FF2CC092
:10383000917081112AC0926090936302662351F0C7
:1038400060916302709164028091650290916602BA
:103850000E94991960916302669570E041E050E022
:1038600084E191E00E943F31892BB1F010922F0248
:1038700081E080932B0220E0409166026091650216
:10388000809164020E94AC1908958F3010F09C6101
:10389000D3CF880F982BD0CF0E94FE1BE9CF809109
:1038A00063028695815009F48EE061E00E94141C49
:1038B00008958091630286958F5F8F3008F081E0D4
:1038C00061E00E94141C08959091630290FF08C06B
:1038D0009695981728F0961718F40E94591C089589
:1038E00061E00E94141C08950E94F21B9C019091BB
:1038F000240280912502982B21F0309321022093FD
:1039000020029091260280912702982B21F030937B
:103910001F0220931E02E0916E02F0916F02309719
:1039200049F082E0809322020480F581E02D82E25A
:1039300092E009950895109284010E94151786E07F
:10394000E2E2F2E0DF011D928A95E9F710921C0293
:1039500010921B0210921D020E94741C0895809305
:103960008F020E949B1C089580918F02982F967061
:10397000963021F488600E94AF1C0895877FFBCFAA
:10398000809386010E949B1C089510928501EAE5B0
:10399000F1E086E0DF011D928A95E9F70E949B1C09
:1039A0000895AAE2B0E0E7EDFCE10C947E3084E8F3
:1039B00092E02091F100DC012D93CD01B2E08C3832
:1039C0009B07B9F780918502833009F472C0B8F47F
:1039D000813009F449C0823009F4B3C08091E80015
:1039E00083FF8BC280918402909185029A3008F007
:1039F00084C2E92FF0E0EB5CFB4C0C9407318A3079
:103A000009F48EC08B3009F471C0893039F7809188
:103A10008402813219F7809188029091890200977F
:103A200011F00297D9F68091E800877F8093E80033
:103A30008091E80082FF38C09091F3008091F200FD
:103A4000029731F48091F100813011F0863021F439
:103A50008091F100809377028091E8008B778093CA
:103A6000E8000E94C510BACF80918402813A09F023
:103A7000B5CF8091E800877F8093E800809188022D
:103A800090918902892B61F468E088E792E070E008
:103A90000E9471118091E8008B778093E8009ECF9F
:103AA00060E090E080E0F3CF809182028111C0CF8E
:103AB00095CF80918402813A09F090CF809188025D
:103AC00090918902892B09F089CF8091E800877F46
:103AD0008093E8008091E80080FFFCCF8091150181
:103AE0008093F1008091E8008E77B9CF80918402B5
:103AF000813209F073CF8091880290918902892BDD
:103B000009F06CCF8091E800877F8093E8000E94E5
:103B1000C51080918602809315010E94C51C5ECF5E
:103B200080918402813209F059CF8091E800877F2B
:103B30008093E8000E94C5108091870280937602EE
:103B40004DCF80918402813A09F048CF8091E800FE
:103B5000877F8093E8008091E80080FFFCCF809110
:103B60007602BECF803899F0823809F0C6C18091C4
:103B700088028F70873008F0C0C18093E90080917F
:103B8000EB0085FB882780F91092E90006C0809140
:103B9000800290918102911182609091E800977F5C
:103BA0009093E8008093F1001092F1008091E8007A
:103BB0008E779FC1882309F48DC1823009F09DC1A1
:103BC00080918602811190C1809188028F702FEFC1
:103BD000280F263008F091C18093E9002091EB0076
:103BE00020FF82C1933031F48091EB00806280939A
:103BF000EB007AC19091EB0090619093EB0021E093
:103C000030E001C0220F8A95EAF72093EA00109273
:103C1000EA008091EB008860EACF81116EC11091BB
:103C200086021F778091E3008078812B8093E300E8
:103C30008091E800877F8093E8000E94C510809102
:103C4000E80080FFFCCF8091E30080688093E30070
:103C500082E0111183E0809382024FC1805882304C
:103C600008F04BC120918602309187022C3DE3E0A1
:103C70003E07A1F583E08A838AE289834FB7F894EF
:103C8000DE01139620E03EE051E2E32FF0E0509396
:103C90005700E49120FF03C0E295EF703F5FEF70A3
:103CA0008E2F90E0EA30C0F0C7968D939D932F5FE2
:103CB000243159F74FBF8091E800877F8093E80057
:103CC0006AE270E0CE0101960E9471118091E800D5
:103CD0008B778093E80011C1C096E7CF809188026E
:103CE00090918902432F55274330510509F44AC06A
:103CF00078F54130510509F47AC08BE590E0E2ECAB
:103D0000F9E14230510509F0F8C02091E800277F21
:103D10002093E80020918A0230918B02821793074A
:103D200008F49C0140E02115310509F065C04111FE
:103D300063C08091E80082FDC9CF80918202882310
:103D400029F2853019F28091E80083FFF2CFBECFCF
:103D50004132510509F43CC04232510509F0CDC051
:103D60008330910508F0C9C0FC01EE0FFF1FE65B30
:103D7000FE4F0190F081E02D895B9E4FDC018C911C
:103D800090E01AC0332721303105D1F021153105DB
:103D900061F02230310509F0B0C0EFE2FAE1E491C0
:103DA0008E2F90E0EFE2FAE107C0E7E5FAE1E49157
:103DB0008E2F90E0E7E5FAE1009709F49EC0A5CFC9
:103DC000EDE4FAE1E4918E2F90E0EDE4FAE1F4CF36
:103DD0008330910508F091C0880F991FFC01E05BCA
:103DE000FE4F0190F081E02D89E090E08ECF82E1DE
:103DF00090E0EDE1FAE189CF80918202882309F415
:103E000065CF853009F462CF8091E80083FD5ECFF5
:103E10008091E80082FD8DCF8091E80080FF83CF04
:103E20009091F3008091F2002115310519F088304E
:103E3000910550F041E0089709F040E08091E800DA
:103E40008E778093E8006FCF44914093F1003196D4
:103E5000215031090196E8CF803809F04EC0809199
:103E6000E800877F8093E800809183028093F100CF
:103E70009DCE811142C0109186021230F0F58091E2
:103E8000E800877F8093E800109383020E94C510AA
:103E9000112311F084E005C08091E30087FDFACF83
:103EA00081E08093820242E061EC81E00E94E410B4
:103EB00042E261EC84E00E94E41042E261EC82E0C4
:103EC0000E94E41042E260EC83E00E94E4108091E2
:103ED000820213C080918602813079F481E09330B0
:103EE00009F080E0809381021092E9008091E8005F
:103EF000877F8093E8000E94C5108091E80083FFCF
:103F00000AC08091E800877F8093E8008091EB00F1
:103F100080628093EB00AA96E3E00C949A301F92A3
:103F20000F920FB60F9211242F933F934F935F93ED
:103F30006F937F938F939F93AF93BF93CF93DF93B1
:103F4000EF93FF93D091E900DF708091EC00C82FD0
:103F5000C17080FDC0E81092E9008091F000877F79
:103F60008093F00078940E94D11C1092E900809117
:103F7000F00088608093F000CD2BCF70C093E900F3
:103F8000FF91EF91DF91CF91BF91AF919F918F9171
:103F90007F916F915F914F913F912F910F900FBE45
:103FA0000F901F9018950E94C51C2FEF84E39CE092
:103FB000215080409040E1F700C0000088E19CE083
:103FC0000FB6F894A895809360000FBE90936000A0
:103FD000FFCF882309F47DC0823879F40E94E11173
:103FE00081FF77C089E30E9439150E94151789E384
:103FF0000E942C150E9415170895833859F40E94C9
:10400000E11180FF66C083E50E9439150E941517F3
:1040100083E5EECF843859F40E94E11182FF59C044
:1040200087E40E9439150E94151787E4E1CF9CEFC1
:10403000980F913AE8F290E2980F983088F48770E0
:1040400021E030E0A90102C0440F551F8A95E2F734
:10405000CA01809590918501892380938501CACFFB
:104060009BE5980F9330B8F48091630190916401BF
:10407000892B79F11092640110926301E0916E0234
:10408000F0916F02309729F10680F781E02D90E0E2
:1040900080E00995089598E5980F9731A0F48091F4
:1040A000650190916601892BA1F010926601109232
:1040B0006501E0916E02F0916F02309751F000843B
:1040C000F185E02DE4CF803F20F00E949A120E94FB
:1040D000741C0895CF93C82F8823C9F08238C9F47F
:1040E0000E94E11181FD13C089E30E9439150E94ED
:1040F00015172FEF81EE94E0215080409040E1F7BA
:1041000000C0000089E30E942C150E941517CF9172
:1041100008958338A1F40E94E11180FDF8CF83E572
:104120000E9439150E9415172FEF81EE94E021505F
:1041300080409040E1F700C0000083E5E4CF843880
:10414000A1F40E94E11182FDE2CF87E40E943915BB
:104150000E9415172FEF81EE94E02150804090408F
:10416000E1F700C0000087E4CECF8CEF8C0F813ADE
:1041700068F4EAE5F1E08191C81711F121E0E03639
:10418000F207C9F78C2F0E943915BFCF80E28C0F40
:10419000883068F4C77021E030E001C0220FCA9572
:1041A000EAF780918501822B80938501AECFC03FD5
:1041B00008F4ADCF8C2F0E9455130E94741CA7CF1A
:1041C0008C2F0E942C150E941517DCCF1F93CF93C4
:1041D000DF93182FD0E0C0E0893311F4C0E5D0E0C0
:1041E000812F0E946A20209739F4812F0E94E91FB5
:1041F000DF91CF911F9108958FE99FE00197F1F72B
:1042000000C000002197EFCF0F931F93CF93DF9350
:10421000C62FD42F022FFC0182818823A9F060933E
:104220008E020E94F21B90938D0280938C02C770C5
:1042300081E001C0880FCA95EAF70E944717DF9115
:10424000CF911F910F91089580918E02681332C013
:1042500080918C0290918D020E94E31B883C910515
:1042600048F510E21D0FCD17B9F080E28C0F8830B1
:1042700040F4C77081E001C0880FCA95EAF70E9438
:104280003C17183048F481E09D2F977001C0880FCB
:104290009A95EAF70E944717802F0E94E62018306F
:1042A00070F6D77081E001C0880FDA95EAF70E94B6
:1042B0003C17C5CFC77081E001C0880FCA95EAF7E7
:1042C000F6CFAFE0B0E0E7E6F1E20C9472304B8756
:1042D0005C876D877E878F8761111092840185E0EE
:1042E000FE013B96DE01169601900D928A95E1F74C
:1042F00089859A85892B31F08E819F8189238F3F13
:1043000009F039C42F96EFE00C948E300E944319C7
:10431000182F682F89819A810E94861569817A8178
:10432000812F0E9435198C012885222309F413C49A
:104330009056811530E2930750F0905E8115E0E1D0
:104340009E0728F0915C81159F4108F062C0C8016A
:104350009927AC01445051094432510518F08B970C
:104360000E9780F4E091A601F0E0EE0FFF1FE555F7
:10437000FE4F808191818F3F3FE7930719F00196AF
:1043800091838083C80182519F45409708F0BCC348
:104390008FEF93E00E94EB338111B4CF025137ECE1
:1043A000832E9924939401113DC01C821B826624A4
:1043B00063942AE0522E84010F5F1F4FC4010E94B4
:1043C000EB3389831A82882309F49CCF9FEF980FDF
:1043D0009330B8F58A836982E2E08E0E911CC801A1
:1043E0000E94EB338B83882309F48CCF8E010F5FFF
:1043F0001F4FF80120812223F1F2213009F05BC028
:10440000918182819130F9F40E5F1F4F0E94E62066
:1044100020C090E080E00F3F110511F008F099CF27
:10442000C80197CF811484E0980609F46BCFC401CA
:104430000E94EB33811101C001509FEF891A990A44
:10444000B2CF4801D3CF923039F40E5F1F4F0E9494
:104450006A200F5F1F4FCDCF933029F40E5F1F4F9F
:104460000E94E91FF6CF943019F00F5F1F4FF1CF74
:104470000E5F1F4F30E020E0B8016F5F7F4FF80103
:1044800041818053990B8A30910550F021503109B8
:1044900000F38FE99FE00197F1F700C00000F6CF2D
:1044A000529EF001539EF00D11249C012E0F3F1FD0
:1044B000842F8B01E1CFE22FF0E0E959FA4E74909E
:1044C000E22FE695E695E6958E2F90E0FC01E95AFD
:1044D000FA4EC4902770D12C022E02C0D594C794F6
:1044E0000A94E2F7E1E0CE22DD24FC01E95BFA4E1A
:1044F000A490B12C022E02C0B594A7940A94E2F7BE
:10450000F1E0AF22BB24FC01E95CFA4EE490F12C0F
:1045100002C0F594E7942A95E2F721E0E222FF2415
:10452000C114D10419F081EE0E946A20A114B104D3
:1045300019F086EE0E946A20872D0E94E620A114C1
:10454000B10419F086EE0E94E91FC114D10419F0DC
:1045500081EE0E94E91FE114F10409F47ACF8CE2A4
:1045600055CF80918F0282600E94AF1C0E94B41CC4
:10457000C9CE80918F028D7FF7CF8B7FF5CF053F1E
:104580003CE5130709F461C008F45BC0063F9CE5F5
:10459000190709F45EC0222309F4FEC210928E02AC
:1045A0000330EDE51E0708F05BC00A3FFCE51F077E
:1045B00030F4C80182509C45449708F05BC00E94CB
:1045C0008B19909393018093920101319CE5190717
:1045D00009F429C108F0A5C00930FCE51F0709F45A
:1045E0000CC108F070C005303CE5130709F4FDC0AC
:1045F00008F055C003309CE5190709F4ECC008F039
:10460000F0C08091920181600230FCE51F0709F43F
:10461000E5C0609192011091930184E090E00E94C6
:10462000FF33612F82E290E00E94FF330E94C51C9D
:1046300069CE27E245EE65EE89C226E241EE60EEE4
:1046400085C227E245EE64EE81C226E241EE62EECB
:104650007DC227E245EE66EE79C228E241E0EBCF6B
:1046600001363DE5130709F4AACF053A8DE5180791
:1046700009F4A5CF06313CE5130709F099C28091F2
:1046800085018A7A91E009F490E0909362018111AA
:10469000F4C089E20E9439150E94151733CE80912B
:1046A0009201806207302CE5120709F497C08091CF
:1046B0009201806108303CE5130708F48FC08091B7
:1046C000920180648BC00D308CE5180709F49FC0FF
:1046D000A0F4809192018E7F0B30ECE51E0709F467
:1046E0007DC0809192018C600C30FCE51F0708F4BE
:1046F00075C0809192018D7F71C0809192018F7EF3
:104700000F302CE5120709F469C080919201877F70
:1047100000313CE5130708F461C0809192018F7D60
:104720005DC00D3F8CE5180709F479C058F50531D7
:10473000ECE51E0709F481C098F480919201837F13
:1047400003312CE5120709F449C008F470C00E9437
:10475000C51C90919201892F97FB87F980583EC024
:104760000B3F8CE5180709F444C008F054C0809151
:10477000930181600A3FECE51E0709F04ACF809360
:10478000930147CF0130FDE51F0709F462C090F4A3
:10479000809193018C7F0F3F3CE5130781F398F1E3
:1047A00080919301982F909591708E7F892B90FB2B
:1047B00081F9E5CF01369DE5190709F450C0053AA6
:1047C000EDE51E0709F452C00230FDE51F0709F0B0
:1047D00020CF60E03FC0809192018260809392017F
:1047E00018CF809192018460F9CF80919201886006
:1047F000F5CF809193018260C2CF0E94C51C809149
:1048000092018068EBCF809193018360B8CF809153
:1048100092018B7FE3CF809193018E7FB0CF809107
:1048200093018D7FACCF809192018F7BD7CF0E9477
:10483000C51C809192018F77D1CF8091920182FB2C
:10484000992790F921E0922790FB82F990FB83F958
:10485000C5CF61E08EE090E00E94FF33DACE909108
:104860009201892F8F7E94FF8061B8CF9091920141
:10487000892F8E7F90FF8160B1CF85E30BCF85E3D9
:1048800094C18091630280FF1BC08E7F809363027E
:10489000609163027091640280916502909166025A
:1048A0000E94991910922F028FEF90E7E2E0815059
:1048B0009040E040E1F700C000000E94C31722CD05
:1048C00081608093630261E086950E94141C1ACD7A
:1048D0004FE45CE169E57CE10E94EE1113CD49E50E
:1048E0005CE16FE47CE1F8CF47E25AE161E37AE111
:1048F000F3CF41E35AE167E27AE1EECF4DE05AE1CE
:104900006AE17AE1E9CF4AE15AE16DE07AE1E4CF88
:1049100040E05AE163EF79E1DFCF4BE35AE16DE428
:104920007AE1DACF4DE45AE16BE37AE1D5CF61E089
:1049300081E0CBCF68E086E00E94641CE3CC0E945B
:104940006F1A0E94D31F0E945215F82E74C118309E
:1049500009F461C0193009F082C19F7021E030E094
:10496000790102C0EE0CFF1C9A95E2F7882309F446
:10497000C3C080918F028E290E94AF1C802F0E949D
:1049800047176DC1E92FEF70FE2E907F19F0F2945A
:1049900090EFF9228823C9F0FF2069F080E2800FB0
:1049A000883010F001110BC080918501F82AF09237
:1049B00085010E941517802F0E946A2050C18091A6
:1049C0008401F82AF0928401F4CF802F0E94E91F1D
:1049D000FF2009F444C1F094005E083010F0E110AB
:1049E00008C080918501F822F09285010E94151778
:1049F00036C180918401F822F0928401F7CF882398
:104A000031F0802F0E9455130E94741C28C1802F02
:104A10000E949A12F9CF9F70692F6068262F237029
:104A200089F581111CC1402F429546954770440F6E
:104A3000440F802F8F70042E01C0880F0A94EAF76C
:104A4000202F207104FF07C02FE030E001C0220FAB
:104A50004A95EAF72095669566956370623069F02D
:104A600050F440918601613029F0822B84230E940A
:104A7000C01CF5C0842B822BFACF282B8091860195
:104A80008227F5CF2695882311F0262F2170222327
:104A900009F4E5C0802F829586958770880F880F6E
:104AA000402F4F70082E01C0440F0A94EAF7202FC0
:104AB000207104FF07C02FE030E001C0220F8A956B
:104AC000EAF72095669566956370623081F0822FD3
:104AD000842B633030F480918F02613029F0242BD5
:104AE00082230E94AF1CBBC0842B822BFACF242BC5
:104AF00080918F028227F5CF802F0E943C17E0948F
:104B000080918F028E21EDCF00313FE5130709F42C
:104B100028CD01318FE5180739F1033F3CE5130734
:104B200009F48BCD08F02BCD083D9CE5190709F45D
:104B300080CD093DECE51E0709F48FCD073DFCE56E
:104B40001F0709F028CD26E241EE61EECE01069660
:104B50000E940421D7CB00319FE5190709F409CD44
:104B60000131EFE51E07C9F680918F02222309F477
:104B700004CD8460F9CC85E0FE013696DE01119605
:104B800001900D928A95E1F789819A816111BECBDE
:104B90000E945215182FC2CB0631FCE51F0711F5F4
:104BA0008091620181116BCE89E20E942C1574CD37
:104BB0000E3D3CE5130709F4C2CE073A8DE5180710
:104BC00009F4BFCE01151C4549F50E94C51CFFEF35
:104BD00024E33CE0F15020403040E1F700C0000009
:104BE0000E949F178091850182720A3CECE51E07A6
:104BF00009F48ECE08F053C0053C3CE5130709F4D8
:104C000073CEB8F5033CECE51E0709F461CE08F05D
:104C100066CE023C3CE5130709F433CE0E811F81BA
:104C2000C801222309F48FCE0E944319F82E682F61
:104C3000C8010E948615B8018F2D0E9435190E9467
:104C4000C813082FE82E192F12951F70888515306C
:104C500009F4D5CE08F07BCE123008F493CE212F84
:104C60002850330B2230310508F04CCB0E94E11163
:104C700049CB073C9CE5190709F440CE08F439CE2E
:104C8000083CFCE51F0709F43ECE43EF59E160E024
:104C90007AE1093C3CE5130709F41ECEBFCF0F3C77
:104CA0009CE5190709F446CEA0F40C3CFCE51F076F
:104CB00009F438CE08F431CE0D3C8CE5180709F420
:104CC00036CE65E082E00E3C9CE5190709F434CE4F
:104CD000A5CF063DECE51E0740F46EE089E0013DFE
:104CE000FCE51F0708F428CE0DCB0D35100709F49D
:104CF00009CB94CFA8E0B0E0E0E8F6E20C94713084
:104D00008E010F5F1F4F88E0F80111928A95E9F735
:104D10009FE1E92E91E0F92E680123E2422E21E085
:104D2000522E66246394712C40E3842E41E0942E2D
:104D3000F70181917F018F3F09F445C0F894E82F76
:104D4000E295EF70F0E021A18F70A30102C0440F43
:104D5000551F8A95E2F7CA01922F982B91A392A131
:104D60008095892382A3789400C0E3E2F1E021E0FA
:104D700030E0B12CA12C41914F3F09F476C0A42F13
:104D8000A295AF70B0E090968C9190E04F7002C009
:104D9000959587954A95E2F780FD67C0C901A82AD5
:104DA000B92A220F331F8E169F0629F7F701319774
:104DB00080818F3F11F00E94B11350EA5A95F1F7AC
:104DC000F601B182A082F2E0CF0ED11C4E145F0436
:104DD00009F0AECF48E050E0B8018AE891E00E94C7
:104DE0004C31FF24F394009709F4F12C892B09F43A
:104DF0003FC088E0F801AAE8B1E001900D928A95E1
:104E0000E1F781E0809389010E94F21B9093880171
:104E10008093870180918701909188010E94E31B14
:104E2000059750F180918A0190918B019093140223
:104E30008093130280918C0190918D0190931602C2
:104E40008093150280918E0190918F0190931802AA
:104E500080931702809190019091910190931A0292
:104E6000809319021092890107C090E080E097CFEB
:104E7000809189018111CECF8F2D2896E0E10C948D
:104E80008D301F921FB61F9211248F939F93AF9363
:104E9000BF9380917002811113C080917102909133
:104EA0007202A0917302B09174024196A11DB11DCE
:104EB0008093710290937202A0937302B093740274
:104EC000BF91AF919F918F911F901FBE1F9018951A
:104ED000CDB7DEB7AC970FB6F894DEBF0FBECDBF2F
:104EE00085B7806885BF85B7806885BF84B7877FB1
:104EF00084BF0FB6F894A895809160008861809374
:104F00006000109260000FBE80E890E00FB6F89449
:104F100080936100909361000FBE8FEA93E19093BC
:104F20005701809356010E944B100E9416118091E8
:104F3000E20084608093E20078948091820288236A
:104F4000A1F01091E9001F709091EC00892F817001
:104F500090FD80E8182B1092E9008091E80083FD15
:104F60000E94D11C1F701093E90082E084BD93E081
:104F700095BD9AEF97BD80936E000E9472198111C2
:104F800002C00E94F61885E30E94B11385E90E94D1
:104F9000B11384E30E94B11386EC0E94B11303E2C3
:104FA00011E050E3E52E51E0F52ED8018D918D01F1
:104FB0008F3F11F00E94B113E016F106B1F788E0BF
:104FC000E3E1F2E0DF01282F1D922A95E9F7EAE8F4
:104FD000F1E0DF011D928A95E9F70E94DA1A81114A
:104FE00002C00E946F1A82E090E00E94EB3380932F
:104FF00097010E948B1990939301809392010E94D4
:105000007A26BFEFE6E7F1E0B150E040F040E1F78B
:1050100000C000000E947A268091130280FF08C021
:105020006FEF7FEF90E080E00E941D340E949F1799
:1050300083E090E00E94EB330E94C01C10921002AB
:1050400080E8809390020E946C2F6DE070E08AEF00
:1050500095E10E94FA15892BE9F58091100263E031
:1050600070E081FD69C387EF95E10E94FA15892BF5
:1050700089F56DE070E087EE95E10E94FA15892BC5
:1050800049F50E94D511605A75418F4F9F4F60932B
:1050900068027093690280936A0290936B02E9E957
:1050A000F2E080E092E0DF019C011D92215030404F
:1050B000E1F7F0939A04E09399048FEF9FEF9093B8
:1050C00098028093970281E080936D0280936C0236
:1050D0001092110280919401811133C00E94DA1A5A
:1050E000811104C00E946F1A0E945F1A88E090E04C
:1050F0000E94F333609363027093640280936502AD
:10510000909366026E7F71F40E945F1A88E090E0CF
:105110000E94F3336093630270936402809365028C
:10512000909366020E94F51110922F028091630203
:1051300080FF04C060E086950E94141C81E080938B
:10514000940180E091E090936F0280936E028091D1
:105150008202FF24F39400E112E1853009F448C390
:105160000E947A26D82E81110E94D511A3E1B2E0C7
:10517000E8E9F1E010E000E0702F8D919D91219120
:1051800031912817390709F454C32827392760E0DB
:10519000EE24E394F12CA9014E215F21452B09F463
:1051A00042C369A37AA39C012E213F2191E0232BC6
:1051B00009F490E09BA30E94F21B8160782F9DA3CD
:1051C0008CA349A15AA16BA18DA10E946121000F5E
:1051D000111FF801E856FE4F80819181E826F926DB
:1051E000F182E0828090AB019090AC01092C000C20
:1051F000AA08BB0880910C0190E0EBEAF1E021E005
:1052000030E03296821793070CF02AC38091A701F1
:105210009091A801A091A901B091AA016FB7F8944B
:10522000409071025090720260907302709074020C
:105230006FBF481A590A6A0A7B0A10910C0139ECAF
:10524000431651046104710414F18091A60190E0A9
:10525000019669E170E00E94B2308093A601880F48
:10526000991FFC01E555FE4F11821082812F1831E4
:1052700008F087E18F5F80930C010E94D511609345
:10528000A7017093A8018093A9019093AA0142E01D
:1052900084169104A104B1040CF4EFC2A0E6BAEEA6
:1052A000A50194010E9414314B015C0188EC189F08
:1052B00090011124032E000C440B550B240D351DB9
:1052C000461D571DA5E0B0E00E9414319B01AC01C2
:1052D000C501B4010E94C63029013A0191EF491677
:1052E0005104610471042CF0A0EF4A2E512C612C62
:1052F000712C8091A2019091A301A091A401B09181
:10530000A5012FB7F8948090710290907202A0903E
:105310007302B09074022FBF881A990AAA0ABB0AB6
:10532000A5E68A169104A104B10484F00E94D51167
:105330006093A2017093A3018093A4019093A501AF
:105340008091E5018093A1014092A0011091A101FB
:10535000A091A001A11BBB0BA50194010E941F31CC
:1053600024E630E040E050E00E94E830120F109355
:10537000E50180912F028823D1F180912E02E091E6
:105380006302E695E81BE0932A02823009F079C2B5
:10539000F0E0E35FF94EE4910E2F10E0FBE5EF2E15
:1053A000F8E1FF2E80912B02882361F010922B02EE
:1053B0000E94F21B909329028093280210922D02E2
:1053C00010922C020E94F21BE0912802F091290217
:1053D0008E1B9F0B8F3F9F4750F40E0F1F1F109384
:1053E00029020093280288E292E0F7010995809152
:1053F0006D02882309F4A8C089E992E090939A0489
:10540000809399048091E501882309F45CC20E948D
:105410003F164091E1015091E2016091E3017091EA
:10542000E4012FB7F8948091710290917202A091DB
:105430007302B09174022FBF841B950BA60BB70BA0
:10544000893C9105A105B10560F00E94D5116093DA
:10545000E1017093E2018093E3019093E4010E94E3
:10546000BD150E94D5116093DD017093DE0180931C
:10547000DF019093E00189E992E090939A04809390
:1054800099048091E5011F928F9386E191E09F93AB
:105490008F9306EE11E01F930F930E945931D801AC
:1054A0000D900020E9F78D01015011090F900F9028
:1054B0000F900F900F900F9056EEE52E51E0F52EC5
:1054C000E016F10608F448C20E94E1112091900212
:1054D00030E027563D4F30939A042093990401E120
:1054E00016E181FF02C009E116E1F8018491811102
:1054F00039C280916D02882371F02091970230911A
:1055000098022115310539F08091110261E070E0B7
:10551000882309F42DC280916C028823A9F00E948F
:10552000D511009168021091690220916A023091B0
:105530006B02601B710B820B930B6F3F7F4F8F4F82
:105540009F4710F40E942416D1100E943F1686E057
:10555000E2E2F2E0DE01119601900D928A95E1F708
:105560001092240210922502109226021092270215
:105570008B819C81892B09F44AC0809120029091F3
:1055800021020E94E31B9C0190911C02992309F4C3
:105590009EC425313105D8F19F3F19F09F5F90934C
:1055A0001C021B81112359F00E9435139FEF111625
:1055B0000CF491E0899F802D1124809324021C819A
:1055C000112359F00E9435139FEF11160CF491E04E
:1055D000899F802D1124809325023091240233234A
:1055E000B1F020912502222391F045EB3403C00154
:1055F0001124992309F487C29093240245EB2403D4
:1056000090011124332309F482C2309325028D8145
:105610009E81892B09F44AC080911E0290911F023D
:105620000E94E31B9C0190911B02992309F44AC438
:1056300021353105D8F19F3F19F09F5F90931B02F0
:105640001D81112359F00E9413139FEF11160CF4C2
:1056500091E0899F802D1124809326021E811123C1
:1056600059F00E9413139FEF11160CF491E0899FDB
:10567000802D112480932702309126023323B1F02C
:1056800020912702222391F045EB3403C00111241D
:10569000992309F440C29093260245EB240390011C
:1056A0001124332309F43BC23093270246E050E033
:1056B000BE016F5F7F4F82E292E00E944C31892BE6
:1056C00011F00E94741C86E0FE013196A2E2B2E065
:1056D00001900D928A95E1F70E94E11190911202DA
:1056E00089138093120280918202843009F02FCDB9
:1056F00083E08093E9008091E80082FF28CD8091CB
:10570000E80090E085FF06C00E946A10882309F433
:105710000AC291E08091E8008B778093E80099239A
:1057200009F415CDE981E150E33108F087C2F0E0DA
:10573000E15CFB4C0C94073184EF95E196CC8091B1
:105740008202843009F442C010922F0280919601A7
:10575000811116C0F092960180916302982F91708A
:10576000909395018E7F809363023FEF40E782E044
:10577000315040408040E1F700C000000E94C31754
:105780000E94241610927002A8E1B0E0E0E40FB687
:10579000F894A895A09360000FBEE093600083B7D3
:1057A000817F846083BF83B7816083BF789488954D
:1057B00083B78E7F83BF0FB6F894A8958091600061
:1057C000886180936000109260000FBE809181021A
:1057D000882371F00E947A26E3E1F2E081919191B1
:1057E000892B09F050C32BE132E02E173F07B1F7A8
:1057F00080918202853009F4A2CF0E94C51C0E94CC
:10580000E1111092960180919501882349F08091D1
:10581000630281608093630260E086950E94141C9D
:105820000E94FE1B9DCC6F5FEE0CFF1C6D3009F0DB
:10583000B2CC0F5F1F4F0430110509F09DCC8FEFE4
:105840008EA38FA318A60E94F21B8160782F9AA7BF
:1058500089A74EA15FA168A58AA50E946121C2CC3B
:1058600040815181052E000C660B770B840E951E2E
:10587000A61EB71E2F5F3F4FC4CC412C512C3201C6
:1058800038CD863059F4F0E0E65FF94EE4910E2F02
:1058900010E0EBE4EE2EE8E1FE2E84CD00ED17E003
:1058A00064EFE62E61E1F62E893009F07BCDE695B6
:1058B000F0E0E95FF94EE4910E2F10E078EFE72E6B
:1058C00077E1F72E6FCD4091DD015091DE016091BF
:1058D000DF017091E0012FB7F894809171029091EF
:1058E0007202A0917302B09174022FBF841B950BBA
:1058F000A60BB70B81369A4EA105B10518F00E9490
:105900002416B9CD4091E1015091E2016091E3018B
:105910007091E4012FB7F894809171029091720216
:10592000A0917302B09174022FBF841B950BA60B3C
:10593000B70B893C9105A105B10508F49CCD0E94E7
:10594000D5116093E1017093E2018093E30190939C
:10595000E4010E94BD158FCDF70181917F010E9466
:105960006716AECD0E9467160F5F1F4FBECD8F5FCB
:10597000082F10E07B01082E02C0EE0CFF1C0A94D9
:10598000E2F7A9014E215F21452B89F39091100286
:1059900090FD43C08295880F807680930F01980117
:1059A000369527953695279520931201815E809331
:1059B00010011092130124E630E047E050E06DE062
:1059C00071E088E70E940F30892B09F0A4CDA8016F
:1059D00025E0440F551F2A95E1F78091100280FDC4
:1059E0002AC047565D4F04E610E020E230E060E454
:1059F00088E70E943030892B09F08DCD0E943F1638
:105A0000E094F0948091970290919802E822F92214
:105A1000F0929802E09297027ECD880F880F880F4F
:105A200080930F0110921201895F8093100183E02F
:105A300080931301C0CFE0EFF1E080E2DF011D921F
:105A40008A95E9F7E4E3F1E0FCA7EBA700E311E0B6
:105A500088E3282E81E0382E97E0992E88248394BD
:105A6000ABA5BCA52D91BCA7ABA7F80141908F01B8
:105A7000440E552E511CC20187569D4F2C01E22F1A
:105A8000F0E0E051FE4F30E020E0692C621AC82CB3
:105A9000022E01C0CC0C0A94EAF7520190E0D50125
:105AA0008D915D018C21662D691B6770762E062E07
:105AB000000C770BB82F01C0BB0F7A94EAF77B2E4E
:105AC0007195619571096770772701C086956A9510
:105AD000EAF7782A8081782A70829F5F9830F9F6F9
